{
  "contractName": "ElectionSystem",
  "abi": [
    {
      "inputs": [
        {
          "internalType": "uint256",
          "name": "",
          "type": "uint256"
        }
      ],
      "name": "admins",
      "outputs": [
        {
          "internalType": "address",
          "name": "",
          "type": "address"
        }
      ],
      "stateMutability": "view",
      "type": "function",
      "constant": true
    },
    {
      "inputs": [],
      "name": "isActive",
      "outputs": [
        {
          "internalType": "bool",
          "name": "",
          "type": "bool"
        }
      ],
      "stateMutability": "view",
      "type": "function",
      "constant": true
    },
    {
      "inputs": [],
      "name": "numberOfPosts",
      "outputs": [
        {
          "internalType": "uint256",
          "name": "",
          "type": "uint256"
        }
      ],
      "stateMutability": "view",
      "type": "function",
      "constant": true
    },
    {
      "inputs": [
        {
          "internalType": "uint256",
          "name": "",
          "type": "uint256"
        }
      ],
      "name": "posts",
      "outputs": [
        {
          "internalType": "uint256",
          "name": "id",
          "type": "uint256"
        },
        {
          "internalType": "string",
          "name": "title",
          "type": "string"
        },
        {
          "internalType": "string",
          "name": "description",
          "type": "string"
        }
      ],
      "stateMutability": "view",
      "type": "function",
      "constant": true
    },
    {
      "inputs": [],
      "name": "getAdmins",
      "outputs": [
        {
          "internalType": "address[]",
          "name": "",
          "type": "address[]"
        }
      ],
      "stateMutability": "view",
      "type": "function",
      "constant": true
    },
    {
      "inputs": [
        {
          "internalType": "string",
          "name": "_title",
          "type": "string"
        },
        {
          "internalType": "string",
          "name": "_description",
          "type": "string"
        },
        {
          "internalType": "string[][]",
          "name": "_candidates",
          "type": "string[][]"
        }
      ],
      "name": "createPost",
      "outputs": [
        {
          "internalType": "uint256",
          "name": "",
          "type": "uint256"
        }
      ],
      "stateMutability": "nonpayable",
      "type": "function"
    },
    {
      "inputs": [],
      "name": "getPosts",
      "outputs": [
        {
          "components": [
            {
              "internalType": "uint256",
              "name": "id",
              "type": "uint256"
            },
            {
              "internalType": "string",
              "name": "title",
              "type": "string"
            },
            {
              "internalType": "string",
              "name": "description",
              "type": "string"
            },
            {
              "components": [
                {
                  "internalType": "uint256",
                  "name": "id",
                  "type": "uint256"
                },
                {
                  "internalType": "string",
                  "name": "photo",
                  "type": "string"
                },
                {
                  "internalType": "string",
                  "name": "name",
                  "type": "string"
                },
                {
                  "internalType": "string",
                  "name": "age",
                  "type": "string"
                },
                {
                  "internalType": "string",
                  "name": "designation",
                  "type": "string"
                },
                {
                  "internalType": "string",
                  "name": "email",
                  "type": "string"
                },
                {
                  "internalType": "string",
                  "name": "manifesto",
                  "type": "string"
                }
              ],
              "internalType": "struct ElectionSystem.Candidate[]",
              "name": "candidates",
              "type": "tuple[]"
            },
            {
              "internalType": "address[][]",
              "name": "votes",
              "type": "address[][]"
            }
          ],
          "internalType": "struct ElectionSystem.Post[]",
          "name": "",
          "type": "tuple[]"
        }
      ],
      "stateMutability": "view",
      "type": "function",
      "constant": true
    },
    {
      "inputs": [
        {
          "internalType": "uint256",
          "name": "_postId",
          "type": "uint256"
        },
        {
          "internalType": "uint256",
          "name": "_candidateId",
          "type": "uint256"
        }
      ],
      "name": "voteCandidate",
      "outputs": [],
      "stateMutability": "nonpayable",
      "type": "function"
    },
    {
      "inputs": [],
      "name": "endElection",
      "outputs": [],
      "stateMutability": "nonpayable",
      "type": "function"
    },
    {
      "inputs": [],
      "name": "getElectionResults",
      "outputs": [
        {
          "internalType": "uint256[][]",
          "name": "",
          "type": "uint256[][]"
        }
      ],
      "stateMutability": "view",
      "type": "function",
      "constant": true
    }
  ],
  "bytecode": "0x608060405260016000806101000a81548160ff02191690831515021790555060006003556040518060600160405280739475221374cc437981d176f8fcc5f0634879af4d73ffffffffffffffffffffffffffffffffffffffff1673ffffffffffffffffffffffffffffffffffffffff16815260200173a5a96df04bdf846717bf83785cdebb59688e383e73ffffffffffffffffffffffffffffffffffffffff1673ffffffffffffffffffffffffffffffffffffffff16815260200173b787a59f62aece837333dbad3037a8babe40271c73ffffffffffffffffffffffffffffffffffffffff1673ffffffffffffffffffffffffffffffffffffffff1681525060049060036200011092919062000125565b503480156200011e57600080fd5b50620001d3565b828054828255906000526020600020908101928215620001a1579160200282015b82811115620001a05782518260006101000a81548173ffffffffffffffffffffffffffffffffffffffff021916908373ffffffffffffffffffffffffffffffffffffffff1602179055509160200191906001019062000146565b5b509050620001b09190620001b4565b5090565b5b80821115620001cf576000816000905550600101620001b5565b5090565b612a2480620001e36000396000f3fe608060405234801561001057600080fd5b506004361061009e5760003560e01c806359f784681161006657806359f784681461015f578063802ef9fb14610169578063d9524ee414610199578063eb1e6270146101b7578063eccf1f10146101d35761009e565b80630b1e7f83146100a357806314bfd6d0146100d557806322f3e2d41461010557806331ae450b1461012357806341f3004a14610141575b600080fd5b6100bd60048036038101906100b8919061168e565b6101f1565b6040516100cc9392919061175a565b60405180910390f35b6100ef60048036038101906100ea919061168e565b61032b565b6040516100fc91906117e0565b60405180910390f35b61010d61036a565b60405161011a9190611816565b60405180910390f35b61012b61037b565b60405161013891906118ef565b60405180910390f35b610149610486565b6040516101569190611d69565b60405180910390f35b610167610b1e565b005b610183600480360381019061017e9190612087565b610b82565b604051610190919061212e565b60405180910390f35b6101a1610f00565b6040516101ae919061212e565b60405180910390f35b6101d160048036038101906101cc9190612149565b610f06565b005b6101db6110f7565b6040516101e891906122fa565b60405180910390f35b600160205280600052604060002060009150905080600001549080600101805461021a9061234b565b80601f01602080910402602001604051908101604052809291908181526020018280546102469061234b565b80156102935780601f1061026857610100808354040283529160200191610293565b820191906000526020600020905b81548152906001019060200180831161027657829003601f168201915b5050505050908060020180546102a89061234b565b80601f01602080910402602001604051908101604052809291908181526020018280546102d49061234b565b80156103215780601f106102f657610100808354040283529160200191610321565b820191906000526020600020905b81548152906001019060200180831161030457829003601f168201915b5050505050905083565b6004818154811061033b57600080fd5b906000526020600020016000915054906101000a900473ffffffffffffffffffffffffffffffffffffffff1681565b60008054906101000a900460ff1681565b6060600060048054905067ffffffffffffffff81111561039e5761039d611d95565b5b6040519080825280602002602001820160405280156103cc5781602001602082028036833780820191505090505b50905060005b60048054905081101561047e57600481815481106103f3576103f261237c565b5b9060005260206000200160009054906101000a900473ffffffffffffffffffffffffffffffffffffffff168282815181106104315761043061237c565b5b602002602001019073ffffffffffffffffffffffffffffffffffffffff16908173ffffffffffffffffffffffffffffffffffffffff16815250508080610476906123da565b9150506103d2565b508091505090565b6060600060035467ffffffffffffffff8111156104a6576104a5611d95565b5b6040519080825280602002602001820160405280156104df57816020015b6104cc6114c9565b8152602001906001900390816104c45790505b50905060005b600354811015610b1657600160008281526020019081526020016000206040518060a0016040529081600082015481526020016001820180546105279061234b565b80601f01602080910402602001604051908101604052809291908181526020018280546105539061234b565b80156105a05780601f10610575576101008083540402835291602001916105a0565b820191906000526020600020905b81548152906001019060200180831161058357829003601f168201915b505050505081526020016002820180546105b99061234b565b80601f01602080910402602001604051908101604052809291908181526020018280546105e59061234b565b80156106325780601f1061060757610100808354040283529160200191610632565b820191906000526020600020905b81548152906001019060200180831161061557829003601f168201915b5050505050815260200160038201805480602002602001604051908101604052809291908181526020016000905b82821015610a0857838290600052602060002090600702016040518060e00160405290816000820154815260200160018201805461069d9061234b565b80601f01602080910402602001604051908101604052809291908181526020018280546106c99061234b565b80156107165780601f106106eb57610100808354040283529160200191610716565b820191906000526020600020905b8154815290600101906020018083116106f957829003601f168201915b5050505050815260200160028201805461072f9061234b565b80601f016020809104026020016040519081016040528092919081815260200182805461075b9061234b565b80156107a85780601f1061077d576101008083540402835291602001916107a8565b820191906000526020600020905b81548152906001019060200180831161078b57829003601f168201915b505050505081526020016003820180546107c19061234b565b80601f01602080910402602001604051908101604052809291908181526020018280546107ed9061234b565b801561083a5780601f1061080f5761010080835404028352916020019161083a565b820191906000526020600020905b81548152906001019060200180831161081d57829003601f168201915b505050505081526020016004820180546108539061234b565b80601f016020809104026020016040519081016040528092919081815260200182805461087f9061234b565b80156108cc5780601f106108a1576101008083540402835291602001916108cc565b820191906000526020600020905b8154815290600101906020018083116108af57829003601f168201915b505050505081526020016005820180546108e59061234b565b80601f01602080910402602001604051908101604052809291908181526020018280546109119061234b565b801561095e5780601f106109335761010080835404028352916020019161095e565b820191906000526020600020905b81548152906001019060200180831161094157829003601f168201915b505050505081526020016006820180546109779061234b565b80601f01602080910402602001604051908101604052809291908181526020018280546109a39061234b565b80156109f05780601f106109c5576101008083540402835291602001916109f0565b820191906000526020600020905b8154815290600101906020018083116109d357829003601f168201915b50505050508152505081526020019060010190610660565b50505050815260200160048201805480602002602001604051908101604052809291908181526020016000905b82821015610add57838290600052602060002001805480602002602001604051908101604052809291908181526020018280548015610ac957602002820191906000526020600020905b8160009054906101000a900473ffffffffffffffffffffffffffffffffffffffff1673ffffffffffffffffffffffffffffffffffffffff1681526020019060010190808311610a7f575b505050505081526020019060010190610a35565b5050505081525050828281518110610af857610af761237c565b5b60200260200101819052508080610b0e906123da565b9150506104e5565b508091505090565b610b2733611232565b610b66576040517f08c379a0000000000000000000000000000000000000000000000000000000008152600401610b5d9061246e565b60405180910390fd5b60008060006101000a81548160ff021916908315150217905550565b6000610b8d33611232565b610bcc576040517f08c379a0000000000000000000000000000000000000000000000000000000008152600401610bc3906124da565b60405180910390fd5b60006001600060035481526020019081526020016000209050600354816000018190555084816001019081610c0191906126a6565b5083816002019081610c1391906126a6565b5060005b8351811015610e675760006040518060e00160405280838152602001868481518110610c4657610c4561237c565b5b6020026020010151600081518110610c6157610c6061237c565b5b60200260200101518152602001868481518110610c8157610c8061237c565b5b6020026020010151600181518110610c9c57610c9b61237c565b5b60200260200101518152602001868481518110610cbc57610cbb61237c565b5b6020026020010151600281518110610cd757610cd661237c565b5b60200260200101518152602001868481518110610cf757610cf661237c565b5b6020026020010151600381518110610d1257610d1161237c565b5b60200260200101518152602001868481518110610d3257610d3161237c565b5b6020026020010151600481518110610d4d57610d4c61237c565b5b60200260200101518152602001868481518110610d6d57610d6c61237c565b5b6020026020010151600581518110610d8857610d8761237c565b5b6020026020010151815250905082600301819080600181540180825580915050600190039060005260206000209060070201600090919091909150600082015181600001556020820151816001019081610de291906126a6565b506040820151816002019081610df891906126a6565b506060820151816003019081610e0e91906126a6565b506080820151816004019081610e2491906126a6565b5060a0820151816005019081610e3a91906126a6565b5060c0820151816006019081610e5091906126a6565b505050508080610e5f906123da565b915050610c17565b50825167ffffffffffffffff811115610e8357610e82611d95565b5b604051908082528060200260200182016040528015610eb657816020015b6060815260200190600190039081610ea15790505b50816004019080519060200190610ece9291906114f8565b5060036000815480929190610ee2906123da565b91905055506001600354610ef69190612778565b9150509392505050565b60035481565b600060016000848152602001908152602001600020905060008054906101000a900460ff16610f6a576040517f08c379a0000000000000000000000000000000000000000000000000000000008152600401610f61906127f8565b60405180910390fd5b6002600084815260200190815260200160002060003373ffffffffffffffffffffffffffffffffffffffff1673ffffffffffffffffffffffffffffffffffffffff16815260200190815260200160002060009054906101000a900460ff1615611008576040517f08c379a0000000000000000000000000000000000000000000000000000000008152600401610fff9061288a565b60405180910390fd5b80600401828154811061101e5761101d61237c565b5b90600052602060002001339080600181540180825580915050600190039060005260206000200160009091909190916101000a81548173ffffffffffffffffffffffffffffffffffffffff021916908373ffffffffffffffffffffffffffffffffffffffff16021790555060016002600085815260200190815260200160002060003373ffffffffffffffffffffffffffffffffffffffff1673ffffffffffffffffffffffffffffffffffffffff16815260200190815260200160002060006101000a81548160ff021916908315150217905550505050565b606060008054906101000a900460ff1615611147576040517f08c379a000000000000000000000000000000000000000000000000000000000815260040161113e906128f6565b60405180910390fd5b61115033611232565b61118f576040517f08c379a000000000000000000000000000000000000000000000000000000000815260040161118690612962565b60405180910390fd5b600060035467ffffffffffffffff8111156111ad576111ac611d95565b5b6040519080825280602002602001820160405280156111e057816020015b60608152602001906001900390816111cb5790505b50905060005b60035481101561122a576111f9816112e0565b82828151811061120c5761120b61237c565b5b60200260200101819052508080611222906123da565b9150506111e6565b508091505090565b600080600090505b6004805490508110156112d5578273ffffffffffffffffffffffffffffffffffffffff16600482815481106112725761127161237c565b5b9060005260206000200160009054906101000a900473ffffffffffffffffffffffffffffffffffffffff1673ffffffffffffffffffffffffffffffffffffffff16036112c25760019150506112db565b80806112cd906123da565b91505061123a565b50600090505b919050565b6060600060016000848152602001908152602001600020905061130233611232565b611341576040517f08c379a0000000000000000000000000000000000000000000000000000000008152600401611338906129ce565b60405180910390fd5b600081600401805480602002602001604051908101604052809291908181526020016000905b8282101561140f578382906000526020600020018054806020026020016040519081016040528092919081815260200182805480156113fb57602002820191906000526020600020905b8160009054906101000a900473ffffffffffffffffffffffffffffffffffffffff1673ffffffffffffffffffffffffffffffffffffffff16815260200190600101908083116113b1575b505050505081526020019060010190611367565b5050505090506000815167ffffffffffffffff81111561143257611431611d95565b5b6040519080825280602002602001820160405280156114605781602001602082028036833780820191505090505b50905060005b82518110156114bd578281815181106114825761148161237c565b5b60200260200101515182828151811061149e5761149d61237c565b5b60200260200101818152505080806114b5906123da565b915050611466565b50809350505050919050565b6040518060a0016040528060008152602001606081526020016060815260200160608152602001606081525090565b828054828255906000526020600020908101928215611547579160200282015b82811115611546578251829080519060200190611536929190611558565b5091602001919060010190611518565b5b50905061155491906115e2565b5090565b8280548282559060005260206000209081019282156115d1579160200282015b828111156115d05782518260006101000a81548173ffffffffffffffffffffffffffffffffffffffff021916908373ffffffffffffffffffffffffffffffffffffffff16021790555091602001919060010190611578565b5b5090506115de9190611606565b5090565b5b8082111561160257600081816115f99190611623565b506001016115e3565b5090565b5b8082111561161f576000816000905550600101611607565b5090565b50805460008255906000526020600020908101906116419190611606565b50565b6000604051905090565b600080fd5b600080fd5b6000819050919050565b61166b81611658565b811461167657600080fd5b50565b60008135905061168881611662565b92915050565b6000602082840312156116a4576116a361164e565b5b60006116b284828501611679565b91505092915050565b6116c481611658565b82525050565b600081519050919050565b600082825260208201905092915050565b60005b838110156117045780820151818401526020810190506116e9565b60008484015250505050565b6000601f19601f8301169050919050565b600061172c826116ca565b61173681856116d5565b93506117468185602086016116e6565b61174f81611710565b840191505092915050565b600060608201905061176f60008301866116bb565b81810360208301526117818185611721565b905081810360408301526117958184611721565b9050949350505050565b600073ffffffffffffffffffffffffffffffffffffffff82169050919050565b60006117ca8261179f565b9050919050565b6117da816117bf565b82525050565b60006020820190506117f560008301846117d1565b92915050565b60008115159050919050565b611810816117fb565b82525050565b600060208201905061182b6000830184611807565b92915050565b600081519050919050565b600082825260208201905092915050565b6000819050602082019050919050565b611866816117bf565b82525050565b6000611878838361185d565b60208301905092915050565b6000602082019050919050565b600061189c82611831565b6118a6818561183c565b93506118b18361184d565b8060005b838110156118e25781516118c9888261186c565b97506118d483611884565b9250506001810190506118b5565b5085935050505092915050565b600060208201905081810360008301526119098184611891565b905092915050565b600081519050919050565b600082825260208201905092915050565b6000819050602082019050919050565b61194681611658565b82525050565b600082825260208201905092915050565b6000611968826116ca565b611972818561194c565b93506119828185602086016116e6565b61198b81611710565b840191505092915050565b600081519050919050565b600082825260208201905092915050565b6000819050602082019050919050565b600060e0830160008301516119da600086018261193d565b50602083015184820360208601526119f2828261195d565b91505060408301518482036040860152611a0c828261195d565b91505060608301518482036060860152611a26828261195d565b91505060808301518482036080860152611a40828261195d565b91505060a083015184820360a0860152611a5a828261195d565b91505060c083015184820360c0860152611a74828261195d565b9150508091505092915050565b6000611a8d83836119c2565b905092915050565b6000602082019050919050565b6000611aad82611996565b611ab781856119a1565b935083602082028501611ac9856119b2565b8060005b85811015611b055784840389528151611ae68582611a81565b9450611af183611a95565b925060208a01995050600181019050611acd565b50829750879550505050505092915050565b600081519050919050565b600082825260208201905092915050565b6000819050602082019050919050565b600082825260208201905092915050565b6000611b5f82611831565b611b698185611b43565b9350611b748361184d565b8060005b83811015611ba5578151611b8c888261186c565b9750611b9783611884565b925050600181019050611b78565b5085935050505092915050565b6000611bbe8383611b54565b905092915050565b6000602082019050919050565b6000611bde82611b17565b611be88185611b22565b935083602082028501611bfa85611b33565b8060005b85811015611c365784840389528151611c178582611bb2565b9450611c2283611bc6565b925060208a01995050600181019050611bfe565b50829750879550505050505092915050565b600060a083016000830151611c60600086018261193d565b5060208301518482036020860152611c78828261195d565b91505060408301518482036040860152611c92828261195d565b91505060608301518482036060860152611cac8282611aa2565b91505060808301518482036080860152611cc68282611bd3565b9150508091505092915050565b6000611cdf8383611c48565b905092915050565b6000602082019050919050565b6000611cff82611911565b611d09818561191c565b935083602082028501611d1b8561192d565b8060005b85811015611d575784840389528151611d388582611cd3565b9450611d4383611ce7565b925060208a01995050600181019050611d1f565b50829750879550505050505092915050565b60006020820190508181036000830152611d838184611cf4565b905092915050565b600080fd5b600080fd5b7f4e487b7100000000000000000000000000000000000000000000000000000000600052604160045260246000fd5b611dcd82611710565b810181811067ffffffffffffffff82111715611dec57611deb611d95565b5b80604052505050565b6000611dff611644565b9050611e0b8282611dc4565b919050565b600067ffffffffffffffff821115611e2b57611e2a611d95565b5b611e3482611710565b9050602081019050919050565b82818337600083830152505050565b6000611e63611e5e84611e10565b611df5565b905082815260208101848484011115611e7f57611e7e611d90565b5b611e8a848285611e41565b509392505050565b600082601f830112611ea757611ea6611d8b565b5b8135611eb7848260208601611e50565b91505092915050565b600067ffffffffffffffff821115611edb57611eda611d95565b5b602082029050602081019050919050565b600080fd5b600067ffffffffffffffff821115611f0c57611f0b611d95565b5b602082029050602081019050919050565b6000611f30611f2b84611ef1565b611df5565b90508083825260208201905060208402830185811115611f5357611f52611eec565b5b835b81811015611f9a57803567ffffffffffffffff811115611f7857611f77611d8b565b5b808601611f858982611e92565b85526020850194505050602081019050611f55565b5050509392505050565b600082601f830112611fb957611fb8611d8b565b5b8135611fc9848260208601611f1d565b91505092915050565b6000611fe5611fe084611ec0565b611df5565b9050808382526020820190506020840283018581111561200857612007611eec565b5b835b8181101561204f57803567ffffffffffffffff81111561202d5761202c611d8b565b5b80860161203a8982611fa4565b8552602085019450505060208101905061200a565b5050509392505050565b600082601f83011261206e5761206d611d8b565b5b813561207e848260208601611fd2565b91505092915050565b6000806000606084860312156120a05761209f61164e565b5b600084013567ffffffffffffffff8111156120be576120bd611653565b5b6120ca86828701611e92565b935050602084013567ffffffffffffffff8111156120eb576120ea611653565b5b6120f786828701611e92565b925050604084013567ffffffffffffffff81111561211857612117611653565b5b61212486828701612059565b9150509250925092565b600060208201905061214360008301846116bb565b92915050565b600080604083850312156121605761215f61164e565b5b600061216e85828601611679565b925050602061217f85828601611679565b9150509250929050565b600081519050919050565b600082825260208201905092915050565b6000819050602082019050919050565b600081519050919050565b600082825260208201905092915050565b6000819050602082019050919050565b60006121ed838361193d565b60208301905092915050565b6000602082019050919050565b6000612211826121b5565b61221b81856121c0565b9350612226836121d1565b8060005b8381101561225757815161223e88826121e1565b9750612249836121f9565b92505060018101905061222a565b5085935050505092915050565b60006122708383612206565b905092915050565b6000602082019050919050565b600061229082612189565b61229a8185612194565b9350836020820285016122ac856121a5565b8060005b858110156122e857848403895281516122c98582612264565b94506122d483612278565b925060208a019950506001810190506122b0565b50829750879550505050505092915050565b600060208201905081810360008301526123148184612285565b905092915050565b7f4e487b7100000000000000000000000000000000000000000000000000000000600052602260045260246000fd5b6000600282049050600182168061236357607f821691505b6020821081036123765761237561231c565b5b50919050565b7f4e487b7100000000000000000000000000000000000000000000000000000000600052603260045260246000fd5b7f4e487b7100000000000000000000000000000000000000000000000000000000600052601160045260246000fd5b60006123e582611658565b91507fffffffffffffffffffffffffffffffffffffffffffffffffffffffffffffffff8203612417576124166123ab565b5b600182019050919050565b7f4f6e6c7920746865206f776e65722063616e20656e642074686520706f73742e600082015250565b60006124586020836116d5565b915061246382612422565b602082019050919050565b600060208201905081810360008301526124878161244b565b9050919050565b7f4f6e6c792061646d696e732063616e20637265617465206120706f7374210000600082015250565b60006124c4601e836116d5565b91506124cf8261248e565b602082019050919050565b600060208201905081810360008301526124f3816124b7565b9050919050565b60008190508160005260206000209050919050565b60006020601f8301049050919050565b600082821b905092915050565b60006008830261255c7fffffffffffffffffffffffffffffffffffffffffffffffffffffffffffffffff8261251f565b612566868361251f565b95508019841693508086168417925050509392505050565b6000819050919050565b60006125a361259e61259984611658565b61257e565b611658565b9050919050565b6000819050919050565b6125bd83612588565b6125d16125c9826125aa565b84845461252c565b825550505050565b600090565b6125e66125d9565b6125f18184846125b4565b505050565b5b818110156126155761260a6000826125de565b6001810190506125f7565b5050565b601f82111561265a5761262b816124fa565b6126348461250f565b81016020851015612643578190505b61265761264f8561250f565b8301826125f6565b50505b505050565b600082821c905092915050565b600061267d6000198460080261265f565b1980831691505092915050565b6000612696838361266c565b9150826002028217905092915050565b6126af826116ca565b67ffffffffffffffff8111156126c8576126c7611d95565b5b6126d2825461234b565b6126dd828285612619565b600060209050601f83116001811461271057600084156126fe578287015190505b612708858261268a565b865550612770565b601f19841661271e866124fa565b60005b8281101561274657848901518255600182019150602085019450602081019050612721565b86831015612763578489015161275f601f89168261266c565b8355505b6001600288020188555050505b505050505050565b600061278382611658565b915061278e83611658565b92508282039050818111156127a6576127a56123ab565b5b92915050565b7f456c656374696f6e2068617320616c726561647920656e6465642e0000000000600082015250565b60006127e2601b836116d5565b91506127ed826127ac565b602082019050919050565b60006020820190508181036000830152612811816127d5565b9050919050565b7f596f75206861766520616c726561647920766f74656420696e2074686973207060008201527f6f73742e00000000000000000000000000000000000000000000000000000000602082015250565b60006128746024836116d5565b915061287f82612818565b604082019050919050565b600060208201905081810360008301526128a381612867565b9050919050565b7f456c656374696f6e206973207374696c6c206163746976650000000000000000600082015250565b60006128e06018836116d5565b91506128eb826128aa565b602082019050919050565b6000602082019050818103600083015261290f816128d3565b9050919050565b7f4f6e6c792061646d696e2063616e206578747261637420726573756c74732e00600082015250565b600061294c601f836116d5565b915061295782612916565b602082019050919050565b6000602082019050818103600083015261297b8161293f565b9050919050565b7f4f6e6c792061646d696e732063616e206578747261637420726573756c747300600082015250565b60006129b8601f836116d5565b91506129c382612982565b602082019050919050565b600060208201905081810360008301526129e7816129ab565b905091905056fea26469706673582212204d47b2a53ec3a935e8bd91a0eb58c498eef8ce37f4777c8ca40a90b5cfdf7a2a64736f6c63430008130033",
  "immutableReferences": {},
  "source": "// SPDX-License-Identifier: MIT\npragma solidity ^0.8.9;\n\ncontract ElectionSystem {\n    struct Candidate {\n        uint256 id;\n        string photo;\n        string name;\n        string age;\n        string designation;\n        string email;\n        string manifesto;\n    }\n\n    struct Post {\n        uint256 id;\n        string title;\n        string description;\n        Candidate[] candidates;\n        address[][] votes;\n    }\n\n    bool public isActive = true;\n    mapping(uint256 => Post) public posts;\n    mapping(uint256 => mapping(address => bool)) hasVoted;\n\n    uint256 public numberOfPosts = 0;\n\n    address[] public admins = [\n        0x9475221374Cc437981D176f8FCc5F0634879af4D,\n        0xA5A96df04BdF846717BF83785CdEBb59688E383e,\n        0xB787A59f62AEce837333Dbad3037A8Babe40271c\n    ];\n\n    function checkOnlyAdmin(address _owner) private view returns (bool) {\n        for (uint256 i = 0; i < admins.length; i++) {\n            if (admins[i] == _owner) {\n                return true;\n            }\n        }\n        return false;\n    }\n\n    function getAdmins() public view returns (address[] memory) {\n        address[] memory output = new address[](admins.length);\n        for (uint256 i = 0; i < admins.length; i++) {\n            output[i] = admins[i];\n        }\n        return output;\n    }\n\n    function createPost(\n        string memory _title,\n        string memory _description,\n        string[][] memory _candidates\n    ) public returns (uint256) {\n        require(checkOnlyAdmin(msg.sender), \"Only admins can create a post!\");\n\n        Post storage post = posts[numberOfPosts];\n\n        post.id = numberOfPosts;\n        post.title = _title;\n        post.description = _description;\n        for (uint256 i = 0; i < _candidates.length; i++) {\n            Candidate memory newCandidate = Candidate({\n                id: i,\n                photo: _candidates[i][0],\n                name: _candidates[i][1],\n                age: _candidates[i][2],\n                designation: _candidates[i][3],\n                email: _candidates[i][4],\n                manifesto: _candidates[i][5]\n            });\n            post.candidates.push(newCandidate);\n        }\n        post.votes = new address[][](_candidates.length);\n\n        numberOfPosts++;\n\n        return numberOfPosts - 1;\n    }\n\n    function getPosts() public view returns (Post[] memory) {\n        Post[] memory allPosts = new Post[](numberOfPosts);\n\n        for (uint256 i = 0; i < numberOfPosts; i++) {\n            allPosts[i] = posts[i];\n        }\n\n        return allPosts;\n    }\n\n    function voteCandidate(uint256 _postId, uint256 _candidateId) public {\n        Post storage post = posts[_postId];\n        require(isActive, \"Election has already ended.\");\n        require(\n            !hasVoted[_postId][msg.sender],\n            \"You have already voted in this post.\"\n        );\n        post.votes[_candidateId].push(msg.sender);\n        hasVoted[_postId][msg.sender] = true;\n    }\n\n    function endElection() public {\n        require(checkOnlyAdmin(msg.sender), \"Only the owner can end the post.\");\n        isActive = false;\n    }\n\n    function getResultsForSinglePost(\n        uint256 _postId\n    ) private view returns (uint256[] memory) {\n        Post storage post = posts[_postId];\n        require(checkOnlyAdmin(msg.sender), \"Only admins can extract results\");\n        address[][] memory votes = post.votes;\n        uint256[] memory voteCounts = new uint256[](votes.length);\n\n        for (uint256 i = 0; i < votes.length; i++) {\n            voteCounts[i] = votes[i].length;\n        }\n\n        return voteCounts;\n    }\n\n    function getElectionResults() public view returns (uint256[][] memory) {\n        require(!isActive, \"Election is still active\");\n        require(checkOnlyAdmin(msg.sender), \"Only admin can extract results.\");\n        uint256[][] memory allVoteCounts = new uint256[][](numberOfPosts);\n\n        for (uint256 i = 0; i < numberOfPosts; i++) {\n            allVoteCounts[i] = getResultsForSinglePost(i);\n        }\n\n        return allVoteCounts;\n    }\n}\n",
  "sourcePath": "C:\\Users\\91910\\Desktop\\IIT_Kanpur\\Semester6\\CS731A\\project\\my-app\\contracts\\ElectionSystem.sol",
  "compiler": {
    "name": "solc",
    "version": "0.8.19+commit.7dd6d404.Emscripten.clang"
  },
  "schemaVersion": "3.4.13",
  "updatedAt": "2023-04-15T16:22:39.947Z",
  "networkType": "ethereum",
  "devdoc": {
    "kind": "dev",
    "methods": {},
    "version": 1
  },
  "userdoc": {
    "kind": "user",
    "methods": {},
    "version": 1
  }
}